{
  "contractName": "ExchangeRates",
  "abi": [
    {
      "constant": false,
      "inputs": [],
      "name": "terminate",
      "outputs": [],
      "payable": false,
      "stateMutability": "nonpayable",
      "type": "function"
    },
    {
      "constant": false,
      "inputs": [
        {
          "name": "newOwner",
          "type": "address"
        }
      ],
      "name": "setOwner",
      "outputs": [],
      "payable": false,
      "stateMutability": "nonpayable",
      "type": "function"
    },
    {
      "constant": true,
      "inputs": [],
      "name": "owner",
      "outputs": [
        {
          "name": "",
          "type": "address"
        }
      ],
      "payable": false,
      "stateMutability": "view",
      "type": "function"
    },
    {
      "constant": true,
      "inputs": [],
      "name": "authority",
      "outputs": [
        {
          "name": "",
          "type": "address"
        }
      ],
      "payable": false,
      "stateMutability": "view",
      "type": "function"
    },
    {
      "inputs": [],
      "payable": true,
      "stateMutability": "payable",
      "type": "constructor"
    },
    {
      "constant": false,
      "inputs": [
        {
          "name": "myid",
          "type": "bytes32"
        },
        {
          "name": "currencies",
          "type": "string"
        }
      ],
      "name": "__callback",
      "outputs": [],
      "payable": false,
      "stateMutability": "nonpayable",
      "type": "function"
    },
    {
      "constant": true,
      "inputs": [
        {
          "name": "myid",
          "type": "bytes32"
        },
        {
          "name": "result",
          "type": "string"
        },
        {
          "name": "proof",
          "type": "bytes"
        }
      ],
      "name": "__callback",
      "outputs": [],
      "payable": false,
      "stateMutability": "pure",
      "type": "function"
    },
    {
      "constant": true,
      "inputs": [
        {
          "name": "_currency",
          "type": "bytes32"
        }
      ],
      "name": "getCurrencyRate",
      "outputs": [
        {
          "name": "",
          "type": "uint256"
        }
      ],
      "payable": false,
      "stateMutability": "view",
      "type": "function"
    },
    {
      "constant": true,
      "inputs": [
        {
          "name": "_currency",
          "type": "bytes32"
        }
      ],
      "name": "isCurrencyAllowed",
      "outputs": [
        {
          "name": "",
          "type": "bool"
        }
      ],
      "payable": false,
      "stateMutability": "view",
      "type": "function"
    },
    {
      "constant": false,
      "inputs": [
        {
          "name": "newDelay",
          "type": "uint256"
        }
      ],
      "name": "setDelay",
      "outputs": [],
      "payable": false,
      "stateMutability": "nonpayable",
      "type": "function"
    }
  ],
  "bytecode": "0x608060405233600660006101000a81548173ffffffffffffffffffffffffffffffffffffffff021916908373ffffffffffffffffffffffffffffffffffffffff16021790555062015180600781905550736f485c8bf6fc43ea212e93bbf8ce046c7f1cb4756000806101000a81548173ffffffffffffffffffffffffffffffffffffffff021916908373ffffffffffffffffffffffffffffffffffffffff160217905550620000be6000620000c4640100000000026401000000009004565b62000ddb565b600062000173826040805190810160405280600381526020017f55524c0000000000000000000000000000000000000000000000000000000000815250606060405190810160405280603281526020017f6a736f6e2868747470733a2f2f6c61747564652d6875622e6865726f6b75617081526020017f702e636f6d2f7261746573292e72617465730000000000000000000000000000815250620001ad640100000000026401000000009004565b90506001600a6000836000191660001916815260200190815260200160002060006101000a81548160ff0219169083151502179055505050565b60008060008060009054906101000a900473ffffffffffffffffffffffffffffffffffffffff1673ffffffffffffffffffffffffffffffffffffffff16148062000231575060006200022f6000809054906101000a900473ffffffffffffffffffffffffffffffffffffffff166200078b640100000000026401000000009004565b145b15620002545762000252600062000796640100000000026401000000009004565b505b6000809054906101000a900473ffffffffffffffffffffffffffffffffffffffff1673ffffffffffffffffffffffffffffffffffffffff166338cc48316040518163ffffffff167c0100000000000000000000000000000000000000000000000000000000028152600401602060405180830381600087803b158015620002da57600080fd5b505af1158015620002ef573d6000803e3d6000fd5b505050506040513d60208110156200030657600080fd5b810190808051906020019092919050505073ffffffffffffffffffffffffffffffffffffffff16600160009054906101000a900473ffffffffffffffffffffffffffffffffffffffff1673ffffffffffffffffffffffffffffffffffffffff1614151562000472576000809054906101000a900473ffffffffffffffffffffffffffffffffffffffff1673ffffffffffffffffffffffffffffffffffffffff166338cc48316040518163ffffffff167c0100000000000000000000000000000000000000000000000000000000028152600401602060405180830381600087803b158015620003f457600080fd5b505af115801562000409573d6000803e3d6000fd5b505050506040513d60208110156200042057600080fd5b8101908080519060200190929190505050600160006101000a81548173ffffffffffffffffffffffffffffffffffffffff021916908373ffffffffffffffffffffffffffffffffffffffff1602179055505b600160009054906101000a900473ffffffffffffffffffffffffffffffffffffffff1673ffffffffffffffffffffffffffffffffffffffff1663524f3889856040518263ffffffff167c01000000000000000000000000000000000000000000000000000000000281526004018080602001828103825283818151815260200191508051906020019080838360005b838110156200051e57808201518184015260208101905062000501565b50505050905090810190601f1680156200054c5780820380516001836020036101000a031916815260200191505b5092505050602060405180830381600087803b1580156200056c57600080fd5b505af115801562000581573d6000803e3d6000fd5b505050506040513d60208110156200059857600080fd5b8101908080519060200190929190505050905062030d403a02670de0b6b3a764000001811115620005d0576000600102915062000783565b600160009054906101000a900473ffffffffffffffffffffffffffffffffffffffff1673ffffffffffffffffffffffffffffffffffffffff1663adf59f99828787876040518563ffffffff167c0100000000000000000000000000000000000000000000000000000000028152600401808481526020018060200180602001838103835285818151815260200191508051906020019080838360005b83811015620006895780820151818401526020810190506200066c565b50505050905090810190601f168015620006b75780820380516001836020036101000a031916815260200191505b50838103825284818151815260200191508051906020019080838360005b83811015620006f2578082015181840152602081019050620006d5565b50505050905090810190601f168015620007205780820380516001836020036101000a031916815260200191505b50955050505050506020604051808303818588803b1580156200074257600080fd5b505af115801562000757573d6000803e3d6000fd5b50505050506040513d60208110156200076f57600080fd5b810190808051906020019092919050505091505b509392505050565b6000813b9050919050565b6000620007b1620007b8640100000000026401000000009004565b9050919050565b600080620007e9731d3b2638a7cc9f2cb3d298a3da7a90b67e5506ed6200078b640100000000026401000000009004565b11156200089d57731d3b2638a7cc9f2cb3d298a3da7a90b67e5506ed6000806101000a81548173ffffffffffffffffffffffffffffffffffffffff021916908373ffffffffffffffffffffffffffffffffffffffff160217905550620008936040805190810160405280600b81526020017f6574685f6d61696e6e657400000000000000000000000000000000000000000081525062000d10640100000000026401000000009004565b6001905062000d0d565b6000620008cd73c03a2615d5efaf5f49f60b7bb6583eaec212fdf16200078b640100000000026401000000009004565b1115620009815773c03a2615d5efaf5f49f60b7bb6583eaec212fdf16000806101000a81548173ffffffffffffffffffffffffffffffffffffffff021916908373ffffffffffffffffffffffffffffffffffffffff160217905550620009776040805190810160405280600c81526020017f6574685f726f707374656e33000000000000000000000000000000000000000081525062000d10640100000000026401000000009004565b6001905062000d0d565b6000620009b173b7a07bcf2ba2f2703b24c0691b5278999c59ac7e6200078b640100000000026401000000009004565b111562000a655773b7a07bcf2ba2f2703b24c0691b5278999c59ac7e6000806101000a81548173ffffffffffffffffffffffffffffffffffffffff021916908373ffffffffffffffffffffffffffffffffffffffff16021790555062000a5b6040805190810160405280600981526020017f6574685f6b6f76616e000000000000000000000000000000000000000000000081525062000d10640100000000026401000000009004565b6001905062000d0d565b600062000a9573146500cfd35b22e4a392fe0adc06de1a1368ed486200078b640100000000026401000000009004565b111562000b495773146500cfd35b22e4a392fe0adc06de1a1368ed486000806101000a81548173ffffffffffffffffffffffffffffffffffffffff021916908373ffffffffffffffffffffffffffffffffffffffff16021790555062000b3f6040805190810160405280600b81526020017f6574685f72696e6b65627900000000000000000000000000000000000000000081525062000d10640100000000026401000000009004565b6001905062000d0d565b600062000b79736f485c8bf6fc43ea212e93bbf8ce046c7f1cb4756200078b640100000000026401000000009004565b111562000bde57736f485c8bf6fc43ea212e93bbf8ce046c7f1cb4756000806101000a81548173ffffffffffffffffffffffffffffffffffffffff021916908373ffffffffffffffffffffffffffffffffffffffff1602179055506001905062000d0d565b600062000c0e7320e12a1f859b3feae5fb2a0a32c18f5a65555bbf6200078b640100000000026401000000009004565b111562000c73577320e12a1f859b3feae5fb2a0a32c18f5a65555bbf6000806101000a81548173ffffffffffffffffffffffffffffffffffffffff021916908373ffffffffffffffffffffffffffffffffffffffff1602179055506001905062000d0d565b600062000ca37351efaf4c8b3c9afbd5ab9f4bbc82784ab6ef8faa6200078b640100000000026401000000009004565b111562000d08577351efaf4c8b3c9afbd5ab9f4bbc82784ab6ef8faa6000806101000a81548173ffffffffffffffffffffffffffffffffffffffff021916908373ffffffffffffffffffffffffffffffffffffffff1602179055506001905062000d0d565b600090505b90565b806002908051906020019062000d2892919062000d2c565b5050565b828054600181600116156101000203166002900490600052602060002090601f016020900481019282601f1062000d6f57805160ff191683800117855562000da0565b8280016001018555821562000da0579182015b8281111562000d9f57825182559160200191906001019062000d82565b5b50905062000daf919062000db3565b5090565b62000dd891905b8082111562000dd457600081600090555060010162000dba565b5090565b90565b611a748062000deb6000396000f300608060405260043610610099576000357c0100000000000000000000000000000000000000000000000000000000900463ffffffff1680630c08bf881461009e57806313af4035146100b55780632387e3e6146100f857806327dc297e1461013d57806338bbfa50146101b45780634f69a419146102715780638da5cb5b146102ba578063bf7e214f14610311578063e177246e14610368575b600080fd5b3480156100aa57600080fd5b506100b3610395565b005b3480156100c157600080fd5b506100f6600480360381019080803573ffffffffffffffffffffffffffffffffffffffff16906020019092919050505061042c565b005b34801561010457600080fd5b506101276004803603810190808035600019169060200190929190505050610508565b6040518082815260200191505060405180910390f35b34801561014957600080fd5b506101b26004803603810190808035600019169060200190929190803590602001908201803590602001908080601f016020809104026020016040519081016040528093929190818152602001838380828437820191505050505050919291929050505061052d565b005b3480156101c057600080fd5b5061026f6004803603810190808035600019169060200190929190803590602001908201803590602001908080601f0160208091040260200160405190810160405280939291908181526020018383808284378201915050505050509192919290803590602001908201803590602001908080601f0160208091040260200160405190810160405280939291908181526020018383808284378201915050505050509192919290505050610752565b005b34801561027d57600080fd5b506102a06004803603810190808035600019169060200190929190505050610757565b604051808215151515815260200191505060405180910390f35b3480156102c657600080fd5b506102cf610789565b604051808273ffffffffffffffffffffffffffffffffffffffff1673ffffffffffffffffffffffffffffffffffffffff16815260200191505060405180910390f35b34801561031d57600080fd5b506103266107af565b604051808273ffffffffffffffffffffffffffffffffffffffff1673ffffffffffffffffffffffffffffffffffffffff16815260200191505060405180910390f35b34801561037457600080fd5b50610393600480360381019080803590602001909291905050506107d5565b005b600660009054906101000a900473ffffffffffffffffffffffffffffffffffffffff1673ffffffffffffffffffffffffffffffffffffffff163373ffffffffffffffffffffffffffffffffffffffff161415156103f157600080fd5b600660009054906101000a900473ffffffffffffffffffffffffffffffffffffffff1673ffffffffffffffffffffffffffffffffffffffff16ff5b600660009054906101000a900473ffffffffffffffffffffffffffffffffffffffff1673ffffffffffffffffffffffffffffffffffffffff163373ffffffffffffffffffffffffffffffffffffffff1614151561048857600080fd5b600073ffffffffffffffffffffffffffffffffffffffff168173ffffffffffffffffffffffffffffffffffffffff16141515156104c457600080fd5b80600660006101000a81548173ffffffffffffffffffffffffffffffffffffffff021916908373ffffffffffffffffffffffffffffffffffffffff16021790555050565b6000600860008360001916600019168152602001908152602001600020549050919050565b610535611989565b61053d611989565b600080606061054a611989565b610552611989565b60006060600a60008c6000191660001916815260200190815260200160002060009054906101000a900460ff16151561058a57600080fd5b600a60008c6000191660001916815260200190815260200160002060006101000a81549060ff02191690556105be8a61083b565b98506105fe6040805190810160405280600181526020017f7c0000000000000000000000000000000000000000000000000000000000000081525061083b565b97506001610615898b61086990919063ffffffff16565b019650600095505b8686101561073a5761064061063b898b6108e090919063ffffffff16565b6108fa565b945061064b8561083b565b935061068b6040805190810160405280600181526020017f3b0000000000000000000000000000000000000000000000000000000000000081525061083b565b92506106b06106ab6106a685876108e090919063ffffffff16565b6108fa565b61095c565b91506106cd6106c884866108e090919063ffffffff16565b6108fa565b90506106da816002610987565b60086000846000191660001916815260200190815260200160002081905550600160096000846000191660001916815260200190815260200160002060006101000a81548160ff021916908315150217905550858060010196505061061d565b610745600754610c7b565b5050505050505050505050565b505050565b600060096000836000191660001916815260200190815260200160002060009054906101000a900460ff169050919050565b600660009054906101000a900473ffffffffffffffffffffffffffffffffffffffff1681565b600560009054906101000a900473ffffffffffffffffffffffffffffffffffffffff1681565b600660009054906101000a900473ffffffffffffffffffffffffffffffffffffffff1673ffffffffffffffffffffffffffffffffffffffff163373ffffffffffffffffffffffffffffffffffffffff1614151561083157600080fd5b8060078190555050565b610843611989565b600060208301905060408051908101604052808451815260200182815250915050919050565b600080826000015161088d8560000151866020015186600001518760200151610d53565b0190505b8360000151846020015101811115156108d957818060010192505082600001516108d1856020015183038660000151038386600001518760200151610d53565b019050610891565b5092915050565b6108e8611989565b6108f3838383610e39565b5092915050565b606080600083600001516040519080825280601f01601f1916602001820160405280156109365781602001602082028038833980820191505090505b5091506020820190506109528185602001518660000151610ed7565b8192505050919050565b600060608290506000815114156109795760006001029150610981565b602083015191505b50919050565b6000606060008060008693506000925060009150600090505b8351811015610c5c5760307f01000000000000000000000000000000000000000000000000000000000000000284828151811015156109db57fe5b9060200101517f010000000000000000000000000000000000000000000000000000000000000090047f0100000000000000000000000000000000000000000000000000000000000000027effffffffffffffffffffffffffffffffffffffffffffffffffffffffffffff191610158015610af3575060397f0100000000000000000000000000000000000000000000000000000000000000028482815181101515610a8357fe5b9060200101517f010000000000000000000000000000000000000000000000000000000000000090047f0100000000000000000000000000000000000000000000000000000000000000027effffffffffffffffffffffffffffffffffffffffffffffffffffffffffffff191611155b15610ba4578115610b16576000861415610b0c57610c5c565b8580600190039650505b600a8302925060308482815181101515610b2c57fe5b9060200101517f010000000000000000000000000000000000000000000000000000000000000090047f0100000000000000000000000000000000000000000000000000000000000000027f010000000000000000000000000000000000000000000000000000000000000090040383019250610c4f565b602e7f0100000000000000000000000000000000000000000000000000000000000000028482815181101515610bd657fe5b9060200101517f010000000000000000000000000000000000000000000000000000000000000090047f0100000000000000000000000000000000000000000000000000000000000000027effffffffffffffffffffffffffffffffffffffffffffffffffffffffffffff19161415610c4e57600191505b5b80806001019150506109a0565b6000861115610c6e5785600a0a830292505b8294505050505092915050565b6000610d19826040805190810160405280600381526020017f55524c0000000000000000000000000000000000000000000000000000000000815250606060405190810160405280603281526020017f6a736f6e2868747470733a2f2f6c61747564652d6875622e6865726f6b75617081526020017f702e636f6d2f7261746573292e72617465730000000000000000000000000000815250610f22565b90506001600a6000836000191660001916815260200190815260200160002060006101000a81548160ff0219169083151502179055505050565b60008060008060008060008060008b97508c8b111515610e235760208b111515610ddd5760018b60200360080260020a03196001029550858a511694508a8d8d010393508588511692505b84600019168360001916141515610dd5578388101515610dc2578c8c019850610e29565b8780600101985050858851169250610d9e565b879850610e29565b8a8a209150600096505b8a8d0387111515610e22578a88209050806000191682600019161415610e0f57879850610e29565b6001880197508680600101975050610de7565b5b8c8c0198505b5050505050505050949350505050565b610e41611989565b6000610e5f8560000151866020015186600001518760200151610d53565b90508460200151836020018181525050846020015181038360000181815250508460000151856020015101811415610ea1576000856000018181525050610ecc565b8360000151836000015101856000018181510391508181525050836000015181018560200181815250505b829150509392505050565b60005b602082101515610eff5782518452602084019350602083019250602082039150610eda565b6001826020036101000a0390508019835116818551168181178652505050505050565b60008060008060009054906101000a900473ffffffffffffffffffffffffffffffffffffffff1673ffffffffffffffffffffffffffffffffffffffff161480610f9457506000610f926000809054906101000a900473ffffffffffffffffffffffffffffffffffffffff166114c4565b145b15610fa557610fa360006114cf565b505b6000809054906101000a900473ffffffffffffffffffffffffffffffffffffffff1673ffffffffffffffffffffffffffffffffffffffff166338cc48316040518163ffffffff167c0100000000000000000000000000000000000000000000000000000000028152600401602060405180830381600087803b15801561102a57600080fd5b505af115801561103e573d6000803e3d6000fd5b505050506040513d602081101561105457600080fd5b810190808051906020019092919050505073ffffffffffffffffffffffffffffffffffffffff16600160009054906101000a900473ffffffffffffffffffffffffffffffffffffffff1673ffffffffffffffffffffffffffffffffffffffff161415156111bc576000809054906101000a900473ffffffffffffffffffffffffffffffffffffffff1673ffffffffffffffffffffffffffffffffffffffff166338cc48316040518163ffffffff167c0100000000000000000000000000000000000000000000000000000000028152600401602060405180830381600087803b15801561114057600080fd5b505af1158015611154573d6000803e3d6000fd5b505050506040513d602081101561116a57600080fd5b8101908080519060200190929190505050600160006101000a81548173ffffffffffffffffffffffffffffffffffffffff021916908373ffffffffffffffffffffffffffffffffffffffff1602179055505b600160009054906101000a900473ffffffffffffffffffffffffffffffffffffffff1673ffffffffffffffffffffffffffffffffffffffff1663524f3889856040518263ffffffff167c01000000000000000000000000000000000000000000000000000000000281526004018080602001828103825283818151815260200191508051906020019080838360005b8381101561126657808201518184015260208101905061124b565b50505050905090810190601f1680156112935780820380516001836020036101000a031916815260200191505b5092505050602060405180830381600087803b1580156112b257600080fd5b505af11580156112c6573d6000803e3d6000fd5b505050506040513d60208110156112dc57600080fd5b8101908080519060200190929190505050905062030d403a02670de0b6b3a76400000181111561131257600060010291506114bc565b600160009054906101000a900473ffffffffffffffffffffffffffffffffffffffff1673ffffffffffffffffffffffffffffffffffffffff1663adf59f99828787876040518563ffffffff167c0100000000000000000000000000000000000000000000000000000000028152600401808481526020018060200180602001838103835285818151815260200191508051906020019080838360005b838110156113c95780820151818401526020810190506113ae565b50505050905090810190601f1680156113f65780820380516001836020036101000a031916815260200191505b50838103825284818151815260200191508051906020019080838360005b8381101561142f578082015181840152602081019050611414565b50505050905090810190601f16801561145c5780820380516001836020036101000a031916815260200191505b50955050505050506020604051808303818588803b15801561147d57600080fd5b505af1158015611491573d6000803e3d6000fd5b50505050506040513d60208110156114a857600080fd5b810190808051906020019092919050505091505b509392505050565b6000813b9050919050565b60006114d96114e0565b9050919050565b600080611500731d3b2638a7cc9f2cb3d298a3da7a90b67e5506ed6114c4565b11156115a157731d3b2638a7cc9f2cb3d298a3da7a90b67e5506ed6000806101000a81548173ffffffffffffffffffffffffffffffffffffffff021916908373ffffffffffffffffffffffffffffffffffffffff1602179055506115986040805190810160405280600b81526020017f6574685f6d61696e6e657400000000000000000000000000000000000000000081525061196f565b6001905061196c565b60006115c073c03a2615d5efaf5f49f60b7bb6583eaec212fdf16114c4565b11156116615773c03a2615d5efaf5f49f60b7bb6583eaec212fdf16000806101000a81548173ffffffffffffffffffffffffffffffffffffffff021916908373ffffffffffffffffffffffffffffffffffffffff1602179055506116586040805190810160405280600c81526020017f6574685f726f707374656e33000000000000000000000000000000000000000081525061196f565b6001905061196c565b600061168073b7a07bcf2ba2f2703b24c0691b5278999c59ac7e6114c4565b11156117215773b7a07bcf2ba2f2703b24c0691b5278999c59ac7e6000806101000a81548173ffffffffffffffffffffffffffffffffffffffff021916908373ffffffffffffffffffffffffffffffffffffffff1602179055506117186040805190810160405280600981526020017f6574685f6b6f76616e000000000000000000000000000000000000000000000081525061196f565b6001905061196c565b600061174073146500cfd35b22e4a392fe0adc06de1a1368ed486114c4565b11156117e15773146500cfd35b22e4a392fe0adc06de1a1368ed486000806101000a81548173ffffffffffffffffffffffffffffffffffffffff021916908373ffffffffffffffffffffffffffffffffffffffff1602179055506117d86040805190810160405280600b81526020017f6574685f72696e6b65627900000000000000000000000000000000000000000081525061196f565b6001905061196c565b6000611800736f485c8bf6fc43ea212e93bbf8ce046c7f1cb4756114c4565b111561186357736f485c8bf6fc43ea212e93bbf8ce046c7f1cb4756000806101000a81548173ffffffffffffffffffffffffffffffffffffffff021916908373ffffffffffffffffffffffffffffffffffffffff1602179055506001905061196c565b60006118827320e12a1f859b3feae5fb2a0a32c18f5a65555bbf6114c4565b11156118e5577320e12a1f859b3feae5fb2a0a32c18f5a65555bbf6000806101000a81548173ffffffffffffffffffffffffffffffffffffffff021916908373ffffffffffffffffffffffffffffffffffffffff1602179055506001905061196c565b60006119047351efaf4c8b3c9afbd5ab9f4bbc82784ab6ef8faa6114c4565b1115611967577351efaf4c8b3c9afbd5ab9f4bbc82784ab6ef8faa6000806101000a81548173ffffffffffffffffffffffffffffffffffffffff021916908373ffffffffffffffffffffffffffffffffffffffff1602179055506001905061196c565b600090505b90565b80600290805190602001906119859291906119a3565b5050565b604080519081016040528060008152602001600081525090565b828054600181600116156101000203166002900490600052602060002090601f016020900481019282601f106119e457805160ff1916838001178555611a12565b82800160010185558215611a12579182015b82811115611a115782518255916020019190600101906119f6565b5b509050611a1f9190611a23565b5090565b611a4591905b80821115611a41576000816000905550600101611a29565b5090565b905600a165627a7a72305820c89094796b713b9368deee8bc49f6cd688ed12a92f6df6af17c031577ada5d7e0029",
  "source": "pragma solidity ^0.4.21;\r\n\r\nimport \"./Authorization.sol\";\r\nimport \"./strings.sol\";\r\nimport \"./usingOraclize.sol\";\r\n\r\ncontract ExchangeRates is usingOraclize, Authorization {\r\n    using strings for *;\r\n    \r\n    uint private delay;\r\n    mapping(bytes32 => uint) private rates; \r\n    mapping(bytes32 => bool) private supportedCurrencies;\r\n    mapping(bytes32=>bool) private validIds;\r\n\r\n    constructor() public payable {\r\n        // initialize the delay\r\n        delay = 86400;\r\n\r\n        // this should only be used when deploying to a local rpc\r\n\r\n        OAR = OraclizeAddrResolverI(0x6f485C8BF6fc43eA212E93BBF8ce046C7f1cb475);\r\n        getCurrenciesRate(0);\r\n    }\r\n\r\n    function __callback(bytes32 myid, string currencies) public {\r\n        // make sure the call was done through our service\r\n        require(validIds[myid]);\r\n        delete validIds[myid];\r\n\r\n        // try to uncomment when we'll try on ganacge or rinkeby, testrpc seems to run out of gas\r\n        //require(msg.sender == oraclize_cbAddress());\r\n\r\n        // this flatten the whole string into an array ['l','a','t','u','d','e'].\r\n        strings.slice memory currenciesRateStringArray = currencies.toSlice();\r\n        strings.slice memory currenciesDelimiter = \"|\".toSlice();\r\n        uint numberOfParts = currenciesRateStringArray.count(currenciesDelimiter) + 1;\r\n        \r\n        // navigate through all parts that were seperated with '|'\r\n        for (uint i = 0; i < numberOfParts; i++) {\r\n            string memory currency = currenciesRateStringArray.split(currenciesDelimiter).toString();    \r\n            strings.slice memory currencyStringArray = currency.toSlice();\r\n            // slice the XXX;999.99\r\n            strings.slice memory currencyDelimeter = \";\".toSlice();\r\n            \r\n            bytes32 sigle = stringToBytes32(currencyStringArray.split(currencyDelimeter).toString());\r\n            string memory price = currencyStringArray.split(currencyDelimeter).toString();\r\n            \r\n            rates[sigle] = parseInt(price,2);\r\n            supportedCurrencies[sigle] = true;\r\n        }\r\n        \r\n        getCurrenciesRate(delay);\r\n    }\r\n\r\n    function getCurrenciesRate(uint d) internal {\r\n        bytes32 queryId = oraclize_query(d, \"URL\", \"json(https://latude-hub.herokuapp.com/rates).rates\");\r\n        validIds[queryId] = true;\r\n    }\r\n\r\n    function getCurrencyRate(bytes32 _currency) public view returns(uint) {\r\n        return rates[_currency];\r\n    }\r\n    \r\n    function isCurrencyAllowed(bytes32 _currency) public view returns(bool) {\r\n        return supportedCurrencies[_currency];\r\n    }\r\n\r\n    function setDelay(uint newDelay) onlyOwner public {\r\n        delay = newDelay;\r\n    }\r\n    \r\n    function stringToBytes32(string memory source) private pure returns (bytes32 result) {\r\n        bytes memory tempEmptyStringTest = bytes(source);\r\n        if (tempEmptyStringTest.length == 0) {\r\n            return 0x0;\r\n        }\r\n\r\n        assembly {\r\n            result := mload(add(source, 32))\r\n        }\r\n    }\r\n}",
  "sourcePath": "C:\\Users\\Francis\\Desktop\\latude-contracts\\contracts\\ExchangeRates.sol",
  "compiler": {
    "name": "solc",
    "version": "0.4.23+commit.124ca40d.Emscripten.clang"
  },
  "schemaVersion": "2.0.0",
  "updatedAt": "2018-05-06T20:37:36.943Z"
}