{
  "contractName": "PropertyFactory",
  "abi": [
    {
      "constant": true,
      "inputs": [],
      "name": "exchangeContract",
      "outputs": [
        {
          "name": "",
          "type": "address"
        }
      ],
      "payable": false,
      "stateMutability": "view",
      "type": "function"
    },
    {
      "inputs": [
        {
          "name": "_exchangeContract",
          "type": "address"
        }
      ],
      "payable": false,
      "stateMutability": "nonpayable",
      "type": "constructor"
    },
    {
      "anonymous": false,
      "inputs": [
        {
          "indexed": false,
          "name": "property",
          "type": "address"
        }
      ],
      "name": "PropertyCreated",
      "type": "event"
    },
    {
      "constant": false,
      "inputs": [
        {
          "name": "id",
          "type": "string"
        }
      ],
      "name": "addProperty",
      "outputs": [
        {
          "name": "",
          "type": "address"
        }
      ],
      "payable": false,
      "stateMutability": "nonpayable",
      "type": "function"
    },
    {
      "constant": true,
      "inputs": [],
      "name": "getProperties",
      "outputs": [
        {
          "name": "",
          "type": "address[]"
        }
      ],
      "payable": false,
      "stateMutability": "view",
      "type": "function"
    }
  ],
  "bytecode": "0x608060405234801561001057600080fd5b50604051602080611f9183398101806040528101908080519060200190929190505050806000806101000a81548173ffffffffffffffffffffffffffffffffffffffff021916908373ffffffffffffffffffffffffffffffffffffffff16021790555050611f0e806100836000396000f300608060405260043610610057576000357c0100000000000000000000000000000000000000000000000000000000900463ffffffff1680633f0a07971461005c578063b48cc6e5146100b3578063ec0cfd0b1461015c575b600080fd5b34801561006857600080fd5b506100716101c8565b604051808273ffffffffffffffffffffffffffffffffffffffff1673ffffffffffffffffffffffffffffffffffffffff16815260200191505060405180910390f35b3480156100bf57600080fd5b5061011a600480360381019080803590602001908201803590602001908080601f01602080910402602001604051908101604052809392919081815260200183838082843782019150505050505091929192905050506101ed565b604051808273ffffffffffffffffffffffffffffffffffffffff1673ffffffffffffffffffffffffffffffffffffffff16815260200191505060405180910390f35b34801561016857600080fd5b5061017161041f565b6040518080602001828103825283818151815260200191508051906020019060200280838360005b838110156101b4578082015181840152602081019050610199565b505050509050019250505060405180910390f35b6000809054906101000a900473ffffffffffffffffffffffffffffffffffffffff1681565b60008082336000809054906101000a900473ffffffffffffffffffffffffffffffffffffffff1661021c6104ea565b80806020018473ffffffffffffffffffffffffffffffffffffffff1673ffffffffffffffffffffffffffffffffffffffff1681526020018373ffffffffffffffffffffffffffffffffffffffff1673ffffffffffffffffffffffffffffffffffffffff168152602001828103825285818151815260200191508051906020019080838360005b838110156102bd5780820151818401526020810190506102a2565b50505050905090810190601f1680156102ea5780820380516001836020036101000a031916815260200191505b50945050505050604051809103906000f08015801561030d573d6000803e3d6000fd5b509050600160003373ffffffffffffffffffffffffffffffffffffffff1673ffffffffffffffffffffffffffffffffffffffff1681526020019081526020016000208190806001815401808255809150509060018203906000526020600020016000909192909190916101000a81548173ffffffffffffffffffffffffffffffffffffffff021916908373ffffffffffffffffffffffffffffffffffffffff160217905550507f05f35573428dbee5ccc6f8cc1b3fd7124c4c5b206a288190526c8dbcceb7d2e481604051808273ffffffffffffffffffffffffffffffffffffffff1673ffffffffffffffffffffffffffffffffffffffff16815260200191505060405180910390a180915050919050565b6060600160003373ffffffffffffffffffffffffffffffffffffffff1673ffffffffffffffffffffffffffffffffffffffff1681526020019081526020016000208054806020026020016040519081016040528092919081815260200182805480156104e057602002820191906000526020600020905b8160009054906101000a900473ffffffffffffffffffffffffffffffffffffffff1673ffffffffffffffffffffffffffffffffffffffff1681526020019060010190808311610496575b5050505050905090565b6040516119e8806104fb8339019056006080604052604051620019e8380380620019e883398101806040528101908080518201929190602001805190602001909291908051906020019092919050505033600160006101000a81548173ffffffffffffffffffffffffffffffffffffffff021916908373ffffffffffffffffffffffffffffffffffffffff1602179055506200009a8262000139640100000000026401000000009004565b620000d6600860009054906101000a900473ffffffffffffffffffffffffffffffffffffffff1662000217640100000000026401000000009004565b8260049080519060200190620000ee9291906200025a565b5080600760006101000a81548173ffffffffffffffffffffffffffffffffffffffff021916908373ffffffffffffffffffffffffffffffffffffffff16021790555050505062000309565b600160009054906101000a900473ffffffffffffffffffffffffffffffffffffffff1673ffffffffffffffffffffffffffffffffffffffff163373ffffffffffffffffffffffffffffffffffffffff161415156200019657600080fd5b600073ffffffffffffffffffffffffffffffffffffffff168173ffffffffffffffffffffffffffffffffffffffff1614151515620001d357600080fd5b80600160006101000a81548173ffffffffffffffffffffffffffffffffffffffff021916908373ffffffffffffffffffffffffffffffffffffffff16021790555050565b806000806101000a81548173ffffffffffffffffffffffffffffffffffffffff021916908373ffffffffffffffffffffffffffffffffffffffff16021790555050565b828054600181600116156101000203166002900490600052602060002090601f016020900481019282601f106200029d57805160ff1916838001178555620002ce565b82800160010185558215620002ce579182015b82811115620002cd578251825591602001919060010190620002b0565b5b509050620002dd9190620002e1565b5090565b6200030691905b8082111562000302576000816000905550600101620002e8565b5090565b90565b6116cf80620003196000396000f3006080604052600436106100d0576000357c0100000000000000000000000000000000000000000000000000000000900463ffffffff1680630c08bf88146100d557806313af4035146100ec5780632c7b26501461012f5780632e1a7d4d146101c5578063312c73b3146101f25780633cf2fc3614610277578063455b3070146102ab5780637dc5c894146103305780637ec511fd1461037b5780638da5cb5b146103b6578063af640d0f1461040d578063bf7e214f1461049d578063eac8f5b8146104f4578063edf49c091461054b575b600080fd5b3480156100e157600080fd5b506100ea610576565b005b3480156100f857600080fd5b5061012d600480360381019080803573ffffffffffffffffffffffffffffffffffffffff16906020019092919050505061060d565b005b34801561013b57600080fd5b5061016e6004803603810190808035906020019092919080359060200190929190803590602001909291905050506106e9565b6040518080602001828103825283818151815260200191508051906020019060200280838360005b838110156101b1578082015181840152602081019050610196565b505050509050019250505060405180910390f35b3480156101d157600080fd5b506101f0600480360381019080803590602001909291905050506106ff565b005b3480156101fe57600080fd5b5061022760048036038101908080359060200190929190803590602001909291905050506107ed565b604051808481526020018381526020018273ffffffffffffffffffffffffffffffffffffffff1673ffffffffffffffffffffffffffffffffffffffff168152602001935050505060405180910390f35b6102a9600480360381019080803590602001909291908035906020019092919080359060200190929190505050610844565b005b3480156102b757600080fd5b506102e060048036038101908080359060200190929190803590602001909291905050506109b4565b604051808481526020018381526020018273ffffffffffffffffffffffffffffffffffffffff1673ffffffffffffffffffffffffffffffffffffffff168152602001935050505060405180910390f35b34801561033c57600080fd5b506103656004803603810190808035906020019092919080359060200190929190505050610a7a565b6040518082815260200191505060405180910390f35b34801561038757600080fd5b506103b4600480360381019080803590602001909291908035600019169060200190929190505050610bf6565b005b3480156103c257600080fd5b506103cb610e0c565b604051808273ffffffffffffffffffffffffffffffffffffffff1673ffffffffffffffffffffffffffffffffffffffff16815260200191505060405180910390f35b34801561041957600080fd5b50610422610e32565b6040518080602001828103825283818151815260200191508051906020019080838360005b83811015610462578082015181840152602081019050610447565b50505050905090810190601f16801561048f5780820380516001836020036101000a031916815260200191505b509250505060405180910390f35b3480156104a957600080fd5b506104b2610ed0565b604051808273ffffffffffffffffffffffffffffffffffffffff1673ffffffffffffffffffffffffffffffffffffffff16815260200191505060405180910390f35b34801561050057600080fd5b5061051f60048036038101908080359060200190929190505050610ef5565b604051808481526020018381526020018260001916600019168152602001935050505060405180910390f35b34801561055757600080fd5b50610560610f70565b6040518082815260200191505060405180910390f35b600160009054906101000a900473ffffffffffffffffffffffffffffffffffffffff1673ffffffffffffffffffffffffffffffffffffffff163373ffffffffffffffffffffffffffffffffffffffff161415156105d257600080fd5b600160009054906101000a900473ffffffffffffffffffffffffffffffffffffffff1673ffffffffffffffffffffffffffffffffffffffff16ff5b600160009054906101000a900473ffffffffffffffffffffffffffffffffffffffff1673ffffffffffffffffffffffffffffffffffffffff163373ffffffffffffffffffffffffffffffffffffffff1614151561066957600080fd5b600073ffffffffffffffffffffffffffffffffffffffff168173ffffffffffffffffffffffffffffffffffffffff16141515156106a557600080fd5b80600160006101000a81548173ffffffffffffffffffffffffffffffffffffffff021916908373ffffffffffffffffffffffffffffffffffffffff16021790555050565b60606106f6848484610f7d565b90509392505050565b600160009054906101000a900473ffffffffffffffffffffffffffffffffffffffff1673ffffffffffffffffffffffffffffffffffffffff163373ffffffffffffffffffffffffffffffffffffffff1614151561075b57600080fd5b3073ffffffffffffffffffffffffffffffffffffffff1631811115151561078157600080fd5b600160009054906101000a900473ffffffffffffffffffffffffffffffffffffffff1673ffffffffffffffffffffffffffffffffffffffff166108fc829081150290604051600060405180830381858888f193505050501580156107e9573d6000803e3d6000fd5b5050565b6006602052816000526040600020602052806000526040600020600091509150508060000154908060010154908060020160009054906101000a900473ffffffffffffffffffffffffffffffffffffffff16905083565b600080838311151561085557600080fd5b83421115151561086457600080fd5b6018603c8086860381151561087557fe5b0481151561087f57fe5b0481151561088957fe5b0491506108968583610a7a565b90508034101515156108a757600080fd5b6108b28585846111e9565b6060604051908101604052808581526020018481526020013373ffffffffffffffffffffffffffffffffffffffff16815250600660008781526020019081526020016000206000868152602001908152602001600020600082015181600001556020820151816001015560408201518160020160006101000a81548173ffffffffffffffffffffffffffffffffffffffff021916908373ffffffffffffffffffffffffffffffffffffffff1602179055509050507ffbca441833367da3d4bfea5bcbdcceda7985ed3917dc9338639fc49ac1257d5285858460405180848152602001838152602001828152602001935050505060405180910390a15050505050565b60008060006109c161161d565b6006600087815260200190815260200160002060008681526020019081526020016000206060604051908101604052908160008201548152602001600182015481526020016002820160009054906101000a900473ffffffffffffffffffffffffffffffffffffffff1673ffffffffffffffffffffffffffffffffffffffff1673ffffffffffffffffffffffffffffffffffffffff16815250509050806000015181602001518260400151935093509350509250925092565b6000610a84611655565b600080600085111515610a9657600080fd5b600586815481101515610aa557fe5b906000526020600020906003020160606040519081016040529081600082015481526020016001820154815260200160028201546000191660001916815250509250600760009054906101000a900473ffffffffffffffffffffffffffffffffffffffff1673ffffffffffffffffffffffffffffffffffffffff16632387e3e684604001516040518263ffffffff167c0100000000000000000000000000000000000000000000000000000000028152600401808260001916600019168152602001915050602060405180830381600087803b158015610b8457600080fd5b505af1158015610b98573d6000803e3d6000fd5b505050506040513d6020811015610bae57600080fd5b81019080805190602001909291905050506103e8806103e8806103e88060648a6020015102020202020202811515610be257fe5b049150848202905080935050505092915050565b6000600160009054906101000a900473ffffffffffffffffffffffffffffffffffffffff1673ffffffffffffffffffffffffffffffffffffffff163373ffffffffffffffffffffffffffffffffffffffff16141515610c5457600080fd5b600760009054906101000a900473ffffffffffffffffffffffffffffffffffffffff1673ffffffffffffffffffffffffffffffffffffffff16634f69a419836040518263ffffffff167c0100000000000000000000000000000000000000000000000000000000028152600401808260001916600019168152602001915050602060405180830381600087803b158015610ced57600080fd5b505af1158015610d01573d6000803e3d6000fd5b505050506040513d6020811015610d1757600080fd5b81019080805190602001909291905050501515610d3357600080fd5b6005805490509050610d44816113db565b60056060604051908101604052808381526020018581526020018460001916815250908060018154018082558091505090600182039060005260206000209060030201600090919290919091506000820151816000015560208201518160010155604082015181600201906000191690555050507fa87faa3be50d1d26635ba3939fc7cf027ac65bd6a6d1d1437d6d40a52880f40f818484604051808481526020018381526020018260001916600019168152602001935050505060405180910390a1505050565b600160009054906101000a900473ffffffffffffffffffffffffffffffffffffffff1681565b60048054600181600116156101000203166002900480601f016020809104026020016040519081016040528092919081815260200182805460018160011615610100020316600290048015610ec85780601f10610e9d57610100808354040283529160200191610ec8565b820191906000526020600020905b815481529060010190602001808311610eab57829003601f168201915b505050505081565b6000809054906101000a900473ffffffffffffffffffffffffffffffffffffffff1681565b6000806000610f02611655565b600585815481101515610f1157fe5b906000526020600020906003020160606040519081016040529081600082015481526020016001820154815260200160028201546000191660001916815250509050806000015181602001518260400151935093509350509193909250565b6000600580549050905090565b6060610f8761167a565b606060006060600086111515610f9c57600080fd5b8686111515610faa57600080fd5b600360008981526020019081526020016000206000600260008b81526020019081526020016000205481526020019081526020016000206080604051908101604052908160008201548152602001600182015481526020016002820154815260200160038201548152505093505b85846060015111156110875760036000898152602001908152602001600020600085600001518152602001908152602001600020608060405190810160405290816000820154815260200160018201548152602001600282015481526020016003820154815250509350611018565b610e426040519080825280602002602001820160405280156110b85781602001602082028038833980820191505090505b509250600091505b86846060015110151561115957836060015183838151811015156110e057fe5b90602001906020020181815250506003600089815260200190815260200160002060008560000151815260200190815260200160002060806040519081016040529081600082015481526020016001820154815260200160028201548152602001600382015481525050935081806001019250506110c0565b6001820160405190808252806020026020018201604052801561118b5781602001602082028038833980820191505090505b5090505b6000821115156111db5782828151811015156111a757fe5b9060200190602002015181838151811015156111bf57fe5b906020019060200201818152505081806001900392505061118f565b809450505050509392505050565b6000806000841115156111fb57600080fd5b60008311151561120a57600080fd5b611214858561146c565b1561122957611224858585611504565b6113d4565b6003600086815260200190815260200160002060006002600088815260200190815260200160002054815260200190815260200160002091505b83826003015410151561129f57600360008681526020019081526020016000206000836000015481526020019081526020016000209150611263565b60036000868152602001908152602001600020600083600101548152602001908152602001600020905061133d8260806040519081016040529081600082015481526020016001820154815260200160028201548152602001600382015481525050858584608060405190810160405290816000820154815260200160018201548152602001600282015481526020016003820154815250506115dc565b151561134857600080fd5b838260010181905550838160000181905550608060405190810160405280836003015481526020018260030154815260200184815260200185815250600360008781526020019081526020016000206000868152602001908152602001600020600082015181600001556020820151816001015560408201518160020155606082015181600301559050505b5050505050565b6080604051908101604052806000815260200160008152602001600081526020016000815250600360008381526020019081526020016000206000808152602001908152602001600020600082015181600001556020820151816001015560408201518160020155606082015181600301559050506000600260008381526020019081526020016000208190555050565b600061147661167a565b6003600085815260200190815260200160002060006002600087815260200190815260200160002054815260200190815260200160002060806040519081016040529081600082015481526020016001820154815260200160028201548152602001600382015481525050905082816060015110156114f857600191506114fd565b600091505b5092915050565b60006003600085815260200190815260200160002060006002600087815260200190815260200160002054815260200190815260200160002090508281600101819055506080604051908101604052808260030154815260200160008152602001838152602001848152506003600086815260200190815260200160002060008581526020019081526020016000206000820151816000015560208201518160010155604082015181600201556060820151816003015590505082600260008681526020019081526020016000208190555050505050565b600083856040015186606001510111156115f95760009050611615565b816060015183850111156116105760009050611615565b600190505b949350505050565b6060604051908101604052806000815260200160008152602001600073ffffffffffffffffffffffffffffffffffffffff1681525090565b6060604051908101604052806000815260200160008152602001600080191681525090565b6080604051908101604052806000815260200160008152602001600081526020016000815250905600a165627a7a723058205c88351be88687efd992607fa1e9b3f0ab10d53233a2d0c17c562d618659e21e0029a165627a7a72305820dfd4fca0585d53aca823122df88f84f01f0e778306fe36bb3000d413b31adf950029",
  "source": "pragma solidity ^0.4.21;\r\n\r\nimport \"./Property.sol\";\r\n\r\ncontract PropertyFactory {\r\n    address public exchangeContract;\r\n    mapping(address => address[]) properties;\r\n    event PropertyCreated (address property);\r\n\r\n    constructor(address _exchangeContract) public {\r\n        exchangeContract = _exchangeContract;\r\n    }\r\n\r\n    function addProperty(string id) public returns (Property) {\r\n        // create new property\r\n        Property newProperty = new Property(id, msg.sender, exchangeContract);\r\n\r\n        // propeties are added under a single owner\r\n        properties[msg.sender].push(newProperty);\r\n        emit PropertyCreated(newProperty);\r\n\r\n        // return newly added property \r\n        return newProperty;\r\n    }\r\n\r\n    function getProperties() public view returns(address[]) {\r\n        return properties[msg.sender];\r\n    }\r\n}",
  "sourcePath": "C:\\Users\\Francis\\Desktop\\latude-contracts\\contracts\\PropertyFactory.sol",
  "compiler": {
    "name": "solc",
    "version": "0.4.23+commit.124ca40d.Emscripten.clang"
  },
  "schemaVersion": "2.0.0",
  "updatedAt": "2018-05-15T01:08:13.215Z"
}