{
  "contractName": "PropertyAuthority",
  "abi": [
    {
      "constant": true,
      "inputs": [
        {
          "name": "caller",
          "type": "address"
        },
        {
          "name": "target",
          "type": "address"
        },
        {
          "name": "sig",
          "type": "bytes4"
        }
      ],
      "name": "canCall",
      "outputs": [
        {
          "name": "",
          "type": "bool"
        }
      ],
      "payable": false,
      "stateMutability": "view",
      "type": "function"
    }
  ],
  "bytecode": "0x608060405234801561001057600080fd5b5061011e806100206000396000f300608060405260043610603f576000357c0100000000000000000000000000000000000000000000000000000000900463ffffffff168063b7009613146044575b600080fd5b348015604f57600080fd5b5060cb600480360381019080803573ffffffffffffffffffffffffffffffffffffffff169060200190929190803573ffffffffffffffffffffffffffffffffffffffff16906020019092919080357bffffffffffffffffffffffffffffffffffffffffffffffffffffffff1916906020019092919050505060e5565b604051808215151515815260200191505060405180910390f35b60006001905093925050505600a165627a7a723058200636f0a9764506ac2e0c18b6d7946b43a67dd1dd79513fabf7b33cd2ffced8340029",
  "source": "pragma solidity ^0.4.21;\r\n\r\nimport \"./Authorization.sol\";\r\n\r\ncontract PropertyAuthority is Authority {\r\n    function canCall(address caller, address target, bytes4 sig) public view returns (bool) {\r\n        return true;\r\n    }\r\n}",
  "sourcePath": "C:\\Users\\Francis\\Desktop\\latude-contracts\\contracts\\PropertyAuthority.sol",
  "compiler": {
    "name": "solc",
    "version": "0.4.23+commit.124ca40d.Emscripten.clang"
  },
  "schemaVersion": "2.0.0",
  "updatedAt": "2018-05-15T01:07:57.038Z"
}