{
  "contractName": "Property",
  "abi": [
    {
      "constant": false,
      "inputs": [],
      "name": "terminate",
      "outputs": [],
      "payable": false,
      "stateMutability": "nonpayable",
      "type": "function"
    },
    {
      "constant": false,
      "inputs": [
        {
          "name": "newOwner",
          "type": "address"
        }
      ],
      "name": "setOwner",
      "outputs": [],
      "payable": false,
      "stateMutability": "nonpayable",
      "type": "function"
    },
    {
      "constant": true,
      "inputs": [
        {
          "name": "",
          "type": "uint256"
        },
        {
          "name": "",
          "type": "uint256"
        }
      ],
      "name": "bookings",
      "outputs": [
        {
          "name": "startTime",
          "type": "uint256"
        },
        {
          "name": "endTime",
          "type": "uint256"
        },
        {
          "name": "user",
          "type": "address"
        }
      ],
      "payable": false,
      "stateMutability": "view",
      "type": "function"
    },
    {
      "constant": true,
      "inputs": [],
      "name": "owner",
      "outputs": [
        {
          "name": "",
          "type": "address"
        }
      ],
      "payable": false,
      "stateMutability": "view",
      "type": "function"
    },
    {
      "constant": true,
      "inputs": [],
      "name": "id",
      "outputs": [
        {
          "name": "",
          "type": "string"
        }
      ],
      "payable": false,
      "stateMutability": "view",
      "type": "function"
    },
    {
      "constant": true,
      "inputs": [],
      "name": "authority",
      "outputs": [
        {
          "name": "",
          "type": "address"
        }
      ],
      "payable": false,
      "stateMutability": "view",
      "type": "function"
    },
    {
      "inputs": [
        {
          "name": "_id",
          "type": "string"
        },
        {
          "name": "_owner",
          "type": "address"
        },
        {
          "name": "_exchangeContract",
          "type": "address"
        }
      ],
      "payable": true,
      "stateMutability": "payable",
      "type": "constructor"
    },
    {
      "anonymous": false,
      "inputs": [
        {
          "indexed": false,
          "name": "asset",
          "type": "uint256"
        },
        {
          "indexed": false,
          "name": "price",
          "type": "uint256"
        },
        {
          "indexed": false,
          "name": "currency",
          "type": "bytes32"
        }
      ],
      "name": "AssetCreated",
      "type": "event"
    },
    {
      "anonymous": false,
      "inputs": [
        {
          "indexed": false,
          "name": "asset",
          "type": "uint256"
        },
        {
          "indexed": false,
          "name": "id",
          "type": "uint256"
        },
        {
          "indexed": false,
          "name": "duration",
          "type": "uint256"
        }
      ],
      "name": "BookingCreated",
      "type": "event"
    },
    {
      "constant": false,
      "inputs": [
        {
          "name": "price",
          "type": "uint256"
        },
        {
          "name": "currency",
          "type": "bytes32"
        }
      ],
      "name": "addAsset",
      "outputs": [],
      "payable": false,
      "stateMutability": "nonpayable",
      "type": "function"
    },
    {
      "constant": true,
      "inputs": [
        {
          "name": "_id",
          "type": "uint256"
        }
      ],
      "name": "getAsset",
      "outputs": [
        {
          "name": "",
          "type": "uint256"
        },
        {
          "name": "",
          "type": "uint256"
        },
        {
          "name": "",
          "type": "bytes32"
        }
      ],
      "payable": false,
      "stateMutability": "view",
      "type": "function"
    },
    {
      "constant": false,
      "inputs": [
        {
          "name": "assetId",
          "type": "uint256"
        },
        {
          "name": "startTime",
          "type": "uint256"
        },
        {
          "name": "endTime",
          "type": "uint256"
        }
      ],
      "name": "addBooking",
      "outputs": [],
      "payable": true,
      "stateMutability": "payable",
      "type": "function"
    },
    {
      "constant": true,
      "inputs": [
        {
          "name": "assetId",
          "type": "uint256"
        },
        {
          "name": "bookingId",
          "type": "uint256"
        }
      ],
      "name": "getStay",
      "outputs": [
        {
          "name": "",
          "type": "uint256"
        },
        {
          "name": "",
          "type": "uint256"
        },
        {
          "name": "",
          "type": "address"
        }
      ],
      "payable": false,
      "stateMutability": "view",
      "type": "function"
    },
    {
      "constant": true,
      "inputs": [
        {
          "name": "assetId",
          "type": "uint256"
        },
        {
          "name": "from",
          "type": "uint256"
        },
        {
          "name": "to",
          "type": "uint256"
        }
      ],
      "name": "getBookings",
      "outputs": [
        {
          "name": "",
          "type": "uint256[]"
        }
      ],
      "payable": false,
      "stateMutability": "view",
      "type": "function"
    },
    {
      "constant": true,
      "inputs": [
        {
          "name": "assetId",
          "type": "uint256"
        },
        {
          "name": "d",
          "type": "uint256"
        }
      ],
      "name": "getBookingPriceInWei",
      "outputs": [
        {
          "name": "",
          "type": "uint256"
        }
      ],
      "payable": false,
      "stateMutability": "view",
      "type": "function"
    },
    {
      "constant": true,
      "inputs": [],
      "name": "numberOfAssets",
      "outputs": [
        {
          "name": "",
          "type": "uint256"
        }
      ],
      "payable": false,
      "stateMutability": "view",
      "type": "function"
    }
  ],
  "bytecode": "0x6080604052604051620018c2380380620018c283398101806040528101908080518201929190602001805190602001909291908051906020019092919050505033600160006101000a81548173ffffffffffffffffffffffffffffffffffffffff021916908373ffffffffffffffffffffffffffffffffffffffff1602179055506200009a8262000139640100000000026401000000009004565b620000d6600860009054906101000a900473ffffffffffffffffffffffffffffffffffffffff1662000217640100000000026401000000009004565b8260049080519060200190620000ee9291906200025a565b5080600760006101000a81548173ffffffffffffffffffffffffffffffffffffffff021916908373ffffffffffffffffffffffffffffffffffffffff16021790555050505062000309565b600160009054906101000a900473ffffffffffffffffffffffffffffffffffffffff1673ffffffffffffffffffffffffffffffffffffffff163373ffffffffffffffffffffffffffffffffffffffff161415156200019657600080fd5b600073ffffffffffffffffffffffffffffffffffffffff168173ffffffffffffffffffffffffffffffffffffffff1614151515620001d357600080fd5b80600160006101000a81548173ffffffffffffffffffffffffffffffffffffffff021916908373ffffffffffffffffffffffffffffffffffffffff16021790555050565b806000806101000a81548173ffffffffffffffffffffffffffffffffffffffff021916908373ffffffffffffffffffffffffffffffffffffffff16021790555050565b828054600181600116156101000203166002900490600052602060002090601f016020900481019282601f106200029d57805160ff1916838001178555620002ce565b82800160010185558215620002ce579182015b82811115620002cd578251825591602001919060010190620002b0565b5b509050620002dd9190620002e1565b5090565b6200030691905b8082111562000302576000816000905550600101620002e8565b5090565b90565b6115a980620003196000396000f3006080604052600436106100c5576000357c0100000000000000000000000000000000000000000000000000000000900463ffffffff1680630c08bf88146100ca57806313af4035146100e15780632c7b265014610124578063312c73b3146101ba5780633cf2fc361461023f5780634fa756a9146102735780637dc5c894146102f85780637ec511fd146103435780638da5cb5b1461037e578063af640d0f146103d5578063bf7e214f14610465578063eac8f5b8146104bc578063edf49c0914610513575b600080fd5b3480156100d657600080fd5b506100df61053e565b005b3480156100ed57600080fd5b50610122600480360381019080803573ffffffffffffffffffffffffffffffffffffffff1690602001909291905050506105d5565b005b34801561013057600080fd5b506101636004803603810190808035906020019092919080359060200190929190803590602001909291905050506106b1565b6040518080602001828103825283818151815260200191508051906020019060200280838360005b838110156101a657808201518184015260208101905061018b565b505050509050019250505060405180910390f35b3480156101c657600080fd5b506101ef60048036038101908080359060200190929190803590602001909291905050506106c7565b604051808481526020018381526020018273ffffffffffffffffffffffffffffffffffffffff1673ffffffffffffffffffffffffffffffffffffffff168152602001935050505060405180910390f35b61027160048036038101908080359060200190929190803590602001909291908035906020019092919050505061071e565b005b34801561027f57600080fd5b506102a8600480360381019080803590602001909291908035906020019092919050505061088e565b604051808481526020018381526020018273ffffffffffffffffffffffffffffffffffffffff1673ffffffffffffffffffffffffffffffffffffffff168152602001935050505060405180910390f35b34801561030457600080fd5b5061032d6004803603810190808035906020019092919080359060200190929190505050610954565b6040518082815260200191505060405180910390f35b34801561034f57600080fd5b5061037c600480360381019080803590602001909291908035600019169060200190929190505050610ad0565b005b34801561038a57600080fd5b50610393610ce6565b604051808273ffffffffffffffffffffffffffffffffffffffff1673ffffffffffffffffffffffffffffffffffffffff16815260200191505060405180910390f35b3480156103e157600080fd5b506103ea610d0c565b6040518080602001828103825283818151815260200191508051906020019080838360005b8381101561042a57808201518184015260208101905061040f565b50505050905090810190601f1680156104575780820380516001836020036101000a031916815260200191505b509250505060405180910390f35b34801561047157600080fd5b5061047a610daa565b604051808273ffffffffffffffffffffffffffffffffffffffff1673ffffffffffffffffffffffffffffffffffffffff16815260200191505060405180910390f35b3480156104c857600080fd5b506104e760048036038101908080359060200190929190505050610dcf565b604051808481526020018381526020018260001916600019168152602001935050505060405180910390f35b34801561051f57600080fd5b50610528610e4a565b6040518082815260200191505060405180910390f35b600160009054906101000a900473ffffffffffffffffffffffffffffffffffffffff1673ffffffffffffffffffffffffffffffffffffffff163373ffffffffffffffffffffffffffffffffffffffff1614151561059a57600080fd5b600160009054906101000a900473ffffffffffffffffffffffffffffffffffffffff1673ffffffffffffffffffffffffffffffffffffffff16ff5b600160009054906101000a900473ffffffffffffffffffffffffffffffffffffffff1673ffffffffffffffffffffffffffffffffffffffff163373ffffffffffffffffffffffffffffffffffffffff1614151561063157600080fd5b600073ffffffffffffffffffffffffffffffffffffffff168173ffffffffffffffffffffffffffffffffffffffff161415151561066d57600080fd5b80600160006101000a81548173ffffffffffffffffffffffffffffffffffffffff021916908373ffffffffffffffffffffffffffffffffffffffff16021790555050565b60606106be848484610e57565b90509392505050565b6006602052816000526040600020602052806000526040600020600091509150508060000154908060010154908060020160009054906101000a900473ffffffffffffffffffffffffffffffffffffffff16905083565b600080838311151561072f57600080fd5b83421115151561073e57600080fd5b6018603c8086860381151561074f57fe5b0481151561075957fe5b0481151561076357fe5b0491506107708583610954565b905080341015151561078157600080fd5b61078c8585846110c3565b6060604051908101604052808581526020018481526020013373ffffffffffffffffffffffffffffffffffffffff16815250600660008781526020019081526020016000206000868152602001908152602001600020600082015181600001556020820151816001015560408201518160020160006101000a81548173ffffffffffffffffffffffffffffffffffffffff021916908373ffffffffffffffffffffffffffffffffffffffff1602179055509050507ffbca441833367da3d4bfea5bcbdcceda7985ed3917dc9338639fc49ac1257d5285858460405180848152602001838152602001828152602001935050505060405180910390a15050505050565b600080600061089b6114f7565b6006600087815260200190815260200160002060008681526020019081526020016000206060604051908101604052908160008201548152602001600182015481526020016002820160009054906101000a900473ffffffffffffffffffffffffffffffffffffffff1673ffffffffffffffffffffffffffffffffffffffff1673ffffffffffffffffffffffffffffffffffffffff16815250509050806000015181602001518260400151935093509350509250925092565b600061095e61152f565b60008060008511151561097057600080fd5b60058681548110151561097f57fe5b906000526020600020906003020160606040519081016040529081600082015481526020016001820154815260200160028201546000191660001916815250509250600760009054906101000a900473ffffffffffffffffffffffffffffffffffffffff1673ffffffffffffffffffffffffffffffffffffffff16632387e3e684604001516040518263ffffffff167c0100000000000000000000000000000000000000000000000000000000028152600401808260001916600019168152602001915050602060405180830381600087803b158015610a5e57600080fd5b505af1158015610a72573d6000803e3d6000fd5b505050506040513d6020811015610a8857600080fd5b81019080805190602001909291905050506103e8806103e8806103e88060648a6020015102020202020202811515610abc57fe5b049150848202905080935050505092915050565b6000600160009054906101000a900473ffffffffffffffffffffffffffffffffffffffff1673ffffffffffffffffffffffffffffffffffffffff163373ffffffffffffffffffffffffffffffffffffffff16141515610b2e57600080fd5b600760009054906101000a900473ffffffffffffffffffffffffffffffffffffffff1673ffffffffffffffffffffffffffffffffffffffff16634f69a419836040518263ffffffff167c0100000000000000000000000000000000000000000000000000000000028152600401808260001916600019168152602001915050602060405180830381600087803b158015610bc757600080fd5b505af1158015610bdb573d6000803e3d6000fd5b505050506040513d6020811015610bf157600080fd5b81019080805190602001909291905050501515610c0d57600080fd5b6005805490509050610c1e816112b5565b60056060604051908101604052808381526020018581526020018460001916815250908060018154018082558091505090600182039060005260206000209060030201600090919290919091506000820151816000015560208201518160010155604082015181600201906000191690555050507fa87faa3be50d1d26635ba3939fc7cf027ac65bd6a6d1d1437d6d40a52880f40f818484604051808481526020018381526020018260001916600019168152602001935050505060405180910390a1505050565b600160009054906101000a900473ffffffffffffffffffffffffffffffffffffffff1681565b60048054600181600116156101000203166002900480601f016020809104026020016040519081016040528092919081815260200182805460018160011615610100020316600290048015610da25780601f10610d7757610100808354040283529160200191610da2565b820191906000526020600020905b815481529060010190602001808311610d8557829003601f168201915b505050505081565b6000809054906101000a900473ffffffffffffffffffffffffffffffffffffffff1681565b6000806000610ddc61152f565b600585815481101515610deb57fe5b906000526020600020906003020160606040519081016040529081600082015481526020016001820154815260200160028201546000191660001916815250509050806000015181602001518260400151935093509350509193909250565b6000600580549050905090565b6060610e61611554565b606060006060600086111515610e7657600080fd5b8686111515610e8457600080fd5b600360008981526020019081526020016000206000600260008b81526020019081526020016000205481526020019081526020016000206080604051908101604052908160008201548152602001600182015481526020016002820154815260200160038201548152505093505b8584606001511115610f615760036000898152602001908152602001600020600085600001518152602001908152602001600020608060405190810160405290816000820154815260200160018201548152602001600282015481526020016003820154815250509350610ef2565b610e42604051908082528060200260200182016040528015610f925781602001602082028038833980820191505090505b509250600091505b8684606001511015156110335783606001518383815181101515610fba57fe5b9060200190602002018181525050600360008981526020019081526020016000206000856000015181526020019081526020016000206080604051908101604052908160008201548152602001600182015481526020016002820154815260200160038201548152505093508180600101925050610f9a565b600182016040519080825280602002602001820160405280156110655781602001602082028038833980820191505090505b5090505b6000821115156110b557828281518110151561108157fe5b90602001906020020151818381518110151561109957fe5b9060200190602002018181525050818060019003925050611069565b809450505050509392505050565b6000806000841115156110d557600080fd5b6000831115156110e457600080fd5b6110ee8585611346565b15611103576110fe8585856113de565b6112ae565b6003600086815260200190815260200160002060006002600088815260200190815260200160002054815260200190815260200160002091505b8382600301541015156111795760036000868152602001908152602001600020600083600001548152602001908152602001600020915061113d565b6003600086815260200190815260200160002060008360010154815260200190815260200160002090506112178260806040519081016040529081600082015481526020016001820154815260200160028201548152602001600382015481525050858584608060405190810160405290816000820154815260200160018201548152602001600282015481526020016003820154815250506114b6565b151561122257600080fd5b838260010181905550838160000181905550608060405190810160405280836003015481526020018260030154815260200184815260200185815250600360008781526020019081526020016000206000868152602001908152602001600020600082015181600001556020820151816001015560408201518160020155606082015181600301559050505b5050505050565b6080604051908101604052806000815260200160008152602001600081526020016000815250600360008381526020019081526020016000206000808152602001908152602001600020600082015181600001556020820151816001015560408201518160020155606082015181600301559050506000600260008381526020019081526020016000208190555050565b6000611350611554565b6003600085815260200190815260200160002060006002600087815260200190815260200160002054815260200190815260200160002060806040519081016040529081600082015481526020016001820154815260200160028201548152602001600382015481525050905082816060015110156113d257600191506113d7565b600091505b5092915050565b60006003600085815260200190815260200160002060006002600087815260200190815260200160002054815260200190815260200160002090508281600101819055506080604051908101604052808260030154815260200160008152602001838152602001848152506003600086815260200190815260200160002060008581526020019081526020016000206000820151816000015560208201518160010155604082015181600201556060820151816003015590505082600260008681526020019081526020016000208190555050505050565b600083856040015186606001510111156114d357600090506114ef565b816060015183850111156114ea57600090506114ef565b600190505b949350505050565b6060604051908101604052806000815260200160008152602001600073ffffffffffffffffffffffffffffffffffffffff1681525090565b6060604051908101604052806000815260200160008152602001600080191681525090565b6080604051908101604052806000815260200160008152602001600081526020016000815250905600a165627a7a72305820f68bcc26cc31639a18a69935bc0a890a2161434e5783772071b34f88a3dede480029",
  "source": "pragma solidity ^0.4.21;\r\n\r\nimport \"./Authorization.sol\";\r\nimport \"./PropertyAuthority.sol\";\r\nimport \"./ExchangeRates.sol\";\r\nimport \"./WheightedLinkedList.sol\";\r\n\r\ncontract Property is Authorization, WheightedLinkedList {\r\n    string public id;\r\n    \r\n    // all assets are tracked within this array\r\n    Asset[] private assets;\r\n\r\n    // all bookings are traked within this map\r\n    mapping(uint => mapping(uint => Booking)) public bookings;\r\n\r\n    // we need to query an already deployed exhange\r\n    ExchangeRates private exchangeRates;\r\n\r\n    // we need to attach to the good authority\r\n    PropertyAuthority private propertyAuthority;\r\n\r\n    // events\r\n    event AssetCreated (uint asset, uint price, bytes32 currency);\r\n    event BookingCreated (uint asset, uint id, uint duration);\r\n\r\n    struct Booking {\r\n        uint startTime;\r\n        uint endTime;\r\n        address user;\r\n    }\r\n\r\n    struct Asset {\r\n        uint id;\r\n        uint price;\r\n        bytes32 currency;\r\n    }\r\n\r\n    constructor(string _id, address _owner, address _exchangeContract) public payable {\r\n        setOwner(_owner);\r\n        setAuthority(propertyAuthority);\r\n        id = _id;\r\n        \r\n        // make sure this contract is always calling the same exchange to convert user currency into eth.\r\n        exchangeRates = ExchangeRates(_exchangeContract);        \r\n    }\r\n\r\n    function addAsset(uint price, bytes32 currency) onlyOwner public {\r\n        require(exchangeRates.isCurrencyAllowed(currency));\r\n\r\n        // ids are generated with the last inserted id + 1\r\n        uint newAssetId = assets.length;\r\n\r\n        // initilize his weighted list to keep all bookings\r\n        WheightedLinkedList.initialize(newAssetId);\r\n\r\n        assets.push(Asset(newAssetId, price, currency));\r\n        emit AssetCreated(newAssetId, price, currency);\r\n    }\r\n\r\n    function getAsset(uint _id) public view returns (uint, uint, bytes32) {\r\n        Asset memory asset = assets[_id];\r\n        return (asset.id, asset.price, asset.currency);\r\n    }\r\n\r\n    function addBooking(uint assetId, uint startTime, uint endTime) public payable {\r\n        require(endTime > startTime);\r\n        require(now <= startTime);\r\n        \r\n        // check that duration is legit\r\n        uint bookingDurationInDays = (endTime - startTime) / 60 / 60 / 24;\r\n\r\n        // check if the amount of wei sent is sufficient.\r\n        uint weiPriceForTheBooking = getBookingPriceInWei(assetId, bookingDurationInDays);\r\n        require(msg.value >= weiPriceForTheBooking);\r\n\r\n        // refunding all extra eth back to user\r\n        // msg.value - weiPriceForTheStay -> return to msg.sender\r\n\r\n        // add the stay within the linked list\r\n        WheightedLinkedList.insertNode(assetId, startTime, bookingDurationInDays);\r\n        bookings[assetId][startTime] = Booking(startTime, endTime, msg.sender);\r\n        emit BookingCreated(assetId, startTime, bookingDurationInDays);\r\n    }\r\n\r\n    function getStay(uint assetId, uint bookingId) public view returns(uint, uint, address) {\r\n        Booking memory booking = bookings[assetId][bookingId];\r\n        return (booking.startTime, booking.endTime, booking.user);\r\n    }\r\n\r\n    function getBookings(uint assetId, uint from, uint to) public view returns(uint[]) {\r\n        return WheightedLinkedList.getNodesBetween(assetId, from, to);\r\n    }\r\n\r\n    function getBookingPriceInWei(uint assetId, uint d) public view returns(uint) {\r\n        require(d > 0);\r\n\r\n        Asset memory asset = assets[assetId];\r\n        uint weiForOneDay = ((asset.price * 100 * 1000 * 1000 * 1000 * 1000 * 1000 * 1000) / exchangeRates.getCurrencyRate(asset.currency));\r\n        uint weiForWholeBooking = weiForOneDay * d;\r\n\r\n        return weiForWholeBooking;\r\n    }\r\n\r\n    // TODO, this is somewhat obscur since we need this because id are created from 0 - inf\r\n    function numberOfAssets() public view returns(uint) {\r\n        return assets.length;\r\n    }\r\n}",
  "sourcePath": "C:\\Users\\Francis\\Desktop\\latude-contracts\\contracts\\Property.sol",
  "compiler": {
    "name": "solc",
    "version": "0.4.23+commit.124ca40d.Emscripten.clang"
  },
  "schemaVersion": "2.0.0",
  "updatedAt": "2018-05-06T23:06:36.679Z"
}